:100000000C945D000C9485000C9485000C94850084
:100010000C9485000C9485000C9485000C9485004C
:100020000C9485000C9485000C9485000C9485003C
:100030000C9485000C9485000C9485000C9485002C
:100040000C94B0020C94FA020C947E020C945802A8
:100050000C9485000C9485000C9485000C9485000C
:100060000C9485000C9485000000000024002700FB
:100070002A0000000000250028002B0004040404CE
:100080000404040402020202020203030303030342
:10009000010204081020408001020408102001021F
:1000A00004081020000000080002010000030407FB
:1000B0000000000000000000440511241FBECFEF27
:1000C000D8E0DEBFCDBF14E0A0E0B1E0E2EFFAE09F
:1000D00002C005900D92AC31B107D9F725E0ACE133
:1000E000B4E001C01D92A53CB207E1F710E0CDE5F8
:1000F000D0E004C02197FE010E947105CC35D107E4
:10010000C9F70E9419030C9477050C940000EEEADD
:10011000F0E02491EAE9F0E09491E6E8F0E0E4917F
:10012000EE23C9F0222339F0233001F1A8F4213065
:1001300019F1223029F1F0E0EE0FFF1FEE58FF4FCA
:10014000A591B4912FB7F894EC91811126C09095A8
:100150009E239C932FBF08952730A9F02830C9F023
:10016000243049F7209180002F7D03C0209180002A
:100170002F7720938000DFCF24B52F7724BDDBCFEE
:1001800024B52F7DFBCF2091B0002F772093B000B6
:10019000D2CF2091B0002F7DF9CF9E2BDACFAF9236
:1001A000BF92CF92DF92EF92FF920F931F93CF9364
:1001B000DF936C017B018B01040F151FEB015E01C6
:1001C000AE18BF08C017D10759F06991D601ED915B
:1001D000FC910190F081E02DC6010995892B79F7FA
:1001E000C501DF91CF911F910F91FF90EF90DF90AC
:1001F000CF90BF90AF900895FC01538D448D252F73
:1002000030E0842F90E0821B930B541710F0CF96B0
:10021000089501970895FC01918D828D981761F0E2
:10022000A28DAE0FBF2FB11D5D968C91928D9F5FF9
:100230009F73928F90E008958FEF9FEF0895FC01D8
:10024000918D828D981731F0828DE80FF11D858D8B
:1002500090E008958FEF9FEF0895FC01918D228D1E
:10026000892F90E0805C9F4F821B91098F739927A3
:10027000089588E295E00E942D0121E0892B09F480
:1002800020E0822F089580E090E0892B29F00E94E1
:10029000390181110C9400000895FC01A48DA80F70
:1002A000B92FB11DA35ABF4F2C91848D90E00196B8
:1002B0008F739927848FA689B7892C93A089B189D8
:1002C0008C91837080648C93938D848D981306C079
:1002D0000288F389E02D80818F7D80830895EF92DD
:1002E000FF920F931F93CF93DF93EC0181E0888FF0
:1002F0009B8D8C8D98131AC0E889F989808185FFC0
:1003000015C09FB7F894EE89FF896083E889F98961
:1003100080818370806480839FBF81E090E0DF9163
:10032000CF911F910F91FF90EF900895F62E0B8DB6
:1003300010E00F5F1F4F0F731127E02E8C8D8E1171
:100340000CC00FB607FCFACFE889F989808185FFD8
:10035000F5CFCE010E944D01F1CFEB8DEC0FFD2FBB
:10036000F11DE35AFF4FF0829FB7F8940B8FEA8993
:10037000FB8980818062CFCFCF93DF93EC01888DA2
:100380008823B9F0AA89BB89E889F9898C9185FD10
:1003900003C0808186FD0DC00FB607FCF7CF8C919E
:1003A00085FFF2CF808185FFEDCFCE010E944D0108
:1003B000E9CFDF91CF910895CF93DF9390E0FC01D7
:1003C000E057FF4F249184589F4FFC01849188236C
:1003D000C9F090E0880F991FFC01E859FF4FA591E3
:1003E000B491FC01EE58FF4FC591D49161110DC03D
:1003F0009FB7F8948C91209582238C938881282331
:1004000028839FBFDF91CF910895623051F49FB749
:10041000F8943C91822F809583238C93E8812E2B36
:10042000EFCF8FB7F894EC912E2B2C938FBFEACFA0
:100430003FB7F8948091210490912204A091230465
:10044000B091240426B5A89B05C02F3F19F0019652
:10045000A11DB11D3FBFBA2FA92F982F8827BC011E
:10046000CD01620F711D811D911D42E0660F771F46
:10047000881F991F4A95D1F70895FC01019000202B
:10048000E9F73197AF01481B590BBC0188E295E0B1
:100490000C94CF00CF93DF930E943D02EC018EE6D7
:1004A00091E00E943D028C0F9D1FDF91CF91089536
:1004B0001F920F920FB60F9211242F933F934F93D9
:1004C0005F936F937F938F939F93AF93BF93EF93BC
:1004D000FF9388E295E00E944D01FF91EF91BF915B
:1004E000AF919F918F917F916F915F914F913F91CC
:1004F0002F910F900FBE0F901F9018951F920F9283
:100500000FB60F9211242F938F939F93EF93FF9326
:10051000E0913805F09139058081E0913E05F09138
:100520003F0582FD1BC09081809141058F5F8F73D5
:1005300020914205821741F0E0914105F0E0E85D2D
:10054000FA4F958F80934105FF91EF919F918F9185
:100550002F910F900FBE0F901F9018958081F4CFB0
:100560001F920F920FB60F9211242F933F938F93E8
:100570009F93AF93BF9380911D0490911E04A0910F
:100580001F04B091200430911C0423E0230F2D3769
:1005900058F50196A11DB11D20931C0480931D04E4
:1005A00090931E04A0931F04B09320048091210413
:1005B00090912204A0912304B09124040196A11DDE
:1005C000B11D8093210490932204A0932304B0933F
:1005D0002404BF91AF919F918F913F912F910F90E4
:1005E0000FBE0F901F90189526E8230F0296A11DAD
:1005F000B11DD2CF1F920F920FB60F9211248F937D
:10060000EF93FF93809127058F3F59F0E0912705E5
:1006100081E08E0F80932705F0E08EB5E85DFB4FFB
:100620008083FF91EF918F910F900FBE0F901F90DD
:100630001895CF93DF93CDB7DEB7A1970FB6F89497
:10064000DEBF0FBECDBF789484B5826084BD84B513
:10065000816084BD85B5826085BD85B5816085BDBD
:1006600080916E00816080936E0010928100809175
:1006700081008260809381008091810081608093FD
:100680008100809180008160809380008091B10022
:1006900084608093B1008091B00081608093B0004D
:1006A00080917A00846080937A0080917A008260E1
:1006B00080937A0080917A00816080937A008091A3
:1006C0007A00806880937A001092C100E09138052A
:1006D000F091390582E08083E0913405F091350591
:1006E0001082E0913605F09137058FEC80831092EF
:1006F0004005E0913C05F0913D0586E08083E09166
:100700003A05F0913B05808180618083E0913A0554
:10071000F0913B05808188608083E0913A05F091FB
:100720003B05808180688083E0913A05F0913B052C
:1007300080818F7D808361E08AE00E94DC0181E01E
:100740000E9487000AE211E048E2242E44E0342EA1
:100750005BE1E52E53E0F52E60E0C62E60E0D62E7C
:10076000BFB6F89480912704811126C0E6E8F0E036
:100770008491EAE9F0E09491E82FF0E0EE0FFF1F9A
:10078000E859FF4FA591B4918C91982319F481E019
:100790000E94870061E08AE00E94DC018CB58061E4
:1007A0008CBD8CB580648CBD61E08DE00E94DC0165
:1007B00061E08BE00E94DC01809127048F5F8093D1
:1007C0002704BFBE80912604882361F08FB7F89478
:1007D000909126049130C9F49DB3909325049DB364
:1007E0009DBB8FBFF3E5FCBD1DBC80E00E94870070
:1007F000E2E1F1E00E171F0759F081918EBD000074
:100800000DB407FEFDCF8EB5F5CF80932504EACF5A
:1008100081E00E94870080912604882359F09FB7C9
:10082000F8942091260480912504213009F0A7C076
:100830008DBB9FBF9FB7F89480912704882319F040
:1008400081508093270480912704811105C08CB5C5
:100850008F7B8CBD109226049FBF10922705F1015B
:100860002FEF11922A95E9F78BE291E00E944A025C
:1008700083E491E00E944A0289E591E00E944A02E5
:1008800081E791E00E944A0281ED91E00E944A02D4
:1008900081E292E00E944A0262E08AE00E94DC016A
:1008A00060E08BE00E94DC0160E08DE00E94DC01F2
:1008B0008CB580648CBD8CB58F7E8CBD8CB580680A
:1008C0008CBD0E9418022B013C0128E8822E23E1F6
:1008D000922EA12CB12C0E94180264197509860968
:1008E0009709683E734081059105A8F381E0881A55
:1008F0009108A108B108E8EE4E0EE3E05E1E611C0F
:10090000711C81149104A104B10429F7B12CA12C0C
:10091000809127058A151B04B1F1ACF18BE492E0BC
:100920000E943D02F501E85DFB4F408150E070E020
:1009300060E019A2FE01B196DB01CA018F70992710
:10094000AA27BB2794E076956795579547959A9582
:10095000D1F78A30B4F4805D829341155105610569
:10096000710551F7309719F0CF010E943D028EE6D4
:1009700091E00E943D022FEFA21AB20AC9CF8FBFA9
:1009800059CF895CE9CF10922705E091270581E0D6
:100990008E0F80932705F0E0E85DFB4F808184385F
:1009A00029F18CE592E00E944A028CB58F7B8CBDC8
:1009B0008CB58F778CBD61E08BE00E94DC0161E03B
:1009C0008AE00E94DC0161E08DE00E94DC0181E0B0
:1009D0000E948700C114D10409F4C2CE0E943901DB
:1009E000882309F4BDCE0E940000BACE84E792E0CD
:1009F0000E944A0286E892E00E944A028FEC92E04E
:100A00000E944A02A0E1B3E0EA16FB06A1F08D9134
:100A1000E091270591E09E0F90932705F0E0E85DB7
:100A2000FB4F2081082E000C990B2817190661F343
:100A30008CE193E0B8CF84E393E00E944A0285E51D
:100A400093E00E944A028CE893E00E944A02ADEAD9
:100A5000B3E083E0A43BB807A1F08D91E0912705B6
:100A600091E09E0F90932705F0E0E85DFB4F208119
:100A7000082E000C990B2817190659F385EB93E003
:100A800092CF8DEC93E08FCFE8E2F5E013821282F3
:100A900088EE93E0A0E0B0E084839583A683B783DB
:100AA00084E091E09183808385EC90E09587848752
:100AB00084EC90E09787868780EC90E0918B808B28
:100AC00081EC90E0938B828B82EC90E0958B848B11
:100AD00086EC90E0978B868B118E128E138E148E7F
:100AE0000895EE0FFF1F0590F491E02D0994F894FE
:020AF000FFCF36
:100AF200000000006F01CF00FC00BC012D010B01C2
:100B02001F01DEADBEEFA7C2CB9BAB83DC8AF1F740
:100B1200EA86BAC38C8B9CF4DCB6000D0A7E7E7E1C
:100B22007E7E7E7E7E7E7E7E7E7E7E7E7E7E7E7EE3
:100B32007E7E0057656C636F6D65204840636B3342
:100B4200726D406E202E2E2E007E7E7E7E7E7E7EFA
:100B52007E7E7E7E7E7E7E7E7E7E7E7E7E7E0D0A98
:100B620000596F7520686176652035207365636F63
:100B72006E647320746F2073656E64206D652074DB
:100B8200686520636F727265637420726573706F3B
:100B92006E736573206F7665722053504920746FAF
:100BA2002033207175657374696F6E7320746F20C2
:100BB2006765742074686520666C6167202E2E2E2E
:100BC200002831292053656E64206D6520746865A4
:100BD2002073696E676C65206279746520584F5284
:100BE200206B6579207573656420746F20656E6370
:100BF2006F64652074686520666F6C6C6F77696ED0
:100C020067206D6573736167652062797465733AF5
:100C120000663020663620666420613420656320D9
:100C220065352066362065302065312066362061C4
:100C3200342061612061612061610053504920527A
:100C4200454345495645443A203078002831292009
:100C52004E6F70652E2054727920416761696E2053
:100C62002E2E2E00283129204E69636520776F725F
:100C72006B202E2E2E00283229204465636F646576
:100C82002074686973206D65737361676520616E96
:100C9200642074656C6C206D65206C617374203106
:100CA200312063686172616374657273206F6620BC
:100CB20074686520706C61696E746578743A00546A
:100CC2006B497953456B3052465249535668544EDC
:100CD2006A5A4D554539574D6B684C5446524454E7
:100CE20056565956306C5654466848556A4E5555B4
:100CF20031597A53457843556C5A4450543039002F
:100D02006451773477395767586351002832292064
:100D12004E6F70652E2054727920416761696E2092
:100D22002E2E2E00283229204E69636520776F729D
:100D32006B21204C617374207175657374696F6ED9
:100D4200202E2E2E002833292054656C6C206D65D0
:100D52002074686520706C61696E207465787420F7
:100D62007573656420746F206D616B6520746869AA
:100D720073204D443520686173683A003064313025
:100D82003764303966356262653430636164653375
:100D9200646535633731653965396237006C65746E
:100DA2006D65696E00283329204E6F70652E2054C0
:100DB200727920416761696E202E2E2E0028332918
:100DC20020596F75206172652061207472756520EB
:100DD2004840636B33726D406E2E20486572652009
:100DE200697320796F757220666C61673A20687446
:100DF2007470733A2F2F796F7574752E62652F6236
:0C0E02005335505F4C4171695667000089
:00000001FF
